{
  "_format": "hh-sol-artifact-1",
  "contractName": "WavePortal",
  "sourceName": "contracts/WavePortal.sol",
  "abi": [
    {
      "inputs": [],
      "stateMutability": "nonpayable",
      "type": "constructor"
    },
    {
      "inputs": [],
      "name": "getTotalWaves",
      "outputs": [
        {
          "internalType": "uint256",
          "name": "",
          "type": "uint256"
        }
      ],
      "stateMutability": "view",
      "type": "function"
    },
    {
      "inputs": [],
      "name": "wave",
      "outputs": [],
      "stateMutability": "nonpayable",
      "type": "function"
    }
  ],
  "bytecode": "0x608060405234801561001057600080fd5b5061003c6040518060600160405280602a8152602001610734602a913961004160201b61010b1760201c565b6101c4565b6100dd816040516024016100559190610142565b6040516020818303038152906040527f41304fac000000000000000000000000000000000000000000000000000000007bffffffffffffffffffffffffffffffffffffffffffffffffffffffff19166020820180517bffffffffffffffffffffffffffffffffffffffffffffffffffffffff83818316178352505050506100e060201b60201c565b50565b60008151905060006a636f6e736f6c652e6c6f679050602083016000808483855afa5050505050565b600061011482610164565b61011e818561016f565b935061012e818560208601610180565b610137816101b3565b840191505092915050565b6000602082019050818103600083015261015c8184610109565b905092915050565b600081519050919050565b600082825260208201905092915050565b60005b8381101561019e578082015181840152602081019050610183565b838111156101ad576000848401525b50505050565b6000601f19601f8301169050919050565b610561806101d36000396000f3fe608060405234801561001057600080fd5b50600436106100365760003560e01c80636fe15b441461003b5780639a2cdc0814610045575b600080fd5b610043610063565b005b61004d6100c0565b60405161005a91906103ef565b60405180910390f35b60016000808282546100759190610426565b925050819055506100be6040518060400160405280601581526020017f2573206861732077617665642025642074696d65730000000000000000000000815250336000546101a4565b565b60006101036040518060400160405280601681526020017f776520686176652077617665642025642074696d657300000000000000000000815250600054610243565b600054905090565b6101a18160405160240161011f919061035f565b6040516020818303038152906040527f41304fac000000000000000000000000000000000000000000000000000000007bffffffffffffffffffffffffffffffffffffffffffffffffffffffff19166020820180517bffffffffffffffffffffffffffffffffffffffffffffffffffffffff83818316178352505050506102df565b50565b61023e8383836040516024016101bc93929190610381565b6040516020818303038152906040527f07c81217000000000000000000000000000000000000000000000000000000007bffffffffffffffffffffffffffffffffffffffffffffffffffffffff19166020820180517bffffffffffffffffffffffffffffffffffffffffffffffffffffffff83818316178352505050506102df565b505050565b6102db82826040516024016102599291906103bf565b6040516020818303038152906040527f9710a9d0000000000000000000000000000000000000000000000000000000007bffffffffffffffffffffffffffffffffffffffffffffffffffffffff19166020820180517bffffffffffffffffffffffffffffffffffffffffffffffffffffffff83818316178352505050506102df565b5050565b60008151905060006a636f6e736f6c652e6c6f679050602083016000808483855afa5050505050565b6103118161047c565b82525050565b60006103228261040a565b61032c8185610415565b935061033c8185602086016104b8565b6103458161051a565b840191505092915050565b610359816104ae565b82525050565b600060208201905081810360008301526103798184610317565b905092915050565b6000606082019050818103600083015261039b8186610317565b90506103aa6020830185610308565b6103b76040830184610350565b949350505050565b600060408201905081810360008301526103d98185610317565b90506103e86020830184610350565b9392505050565b60006020820190506104046000830184610350565b92915050565b600081519050919050565b600082825260208201905092915050565b6000610431826104ae565b915061043c836104ae565b9250827fffffffffffffffffffffffffffffffffffffffffffffffffffffffffffffffff03821115610471576104706104eb565b5b828201905092915050565b60006104878261048e565b9050919050565b600073ffffffffffffffffffffffffffffffffffffffff82169050919050565b6000819050919050565b60005b838110156104d65780820151818401526020810190506104bb565b838111156104e5576000848401525b50505050565b7f4e487b7100000000000000000000000000000000000000000000000000000000600052601160045260246000fd5b6000601f19601f830116905091905056fea264697066735822122058482ccc1557ebc24934c251e974bc771c981d0afa1038460db12b386462e85464736f6c63430008040033596f20796f2c204920616d206120636f6e747261637420616e64204920616d207665727920736d617274",
  "linkReferences": {},
  "deployedLinkReferences": {}
}